{
  "contractName": "Dex",
  "abi": [
    {
      "anonymous": false,
      "inputs": [
        {
          "indexed": true,
          "internalType": "address",
          "name": "previousOwner",
          "type": "address"
        },
        {
          "indexed": true,
          "internalType": "address",
          "name": "newOwner",
          "type": "address"
        }
      ],
      "name": "OwnershipTransferred",
      "type": "event"
    },
    {
      "inputs": [
        {
          "internalType": "bytes32",
          "name": "ticker",
          "type": "bytes32"
        },
        {
          "internalType": "address",
          "name": "tokenAddress",
          "type": "address"
        }
      ],
      "name": "addToken",
      "outputs": [],
      "stateMutability": "nonpayable",
      "type": "function"
    },
    {
      "inputs": [
        {
          "internalType": "address",
          "name": "",
          "type": "address"
        },
        {
          "internalType": "bytes32",
          "name": "",
          "type": "bytes32"
        }
      ],
      "name": "balances",
      "outputs": [
        {
          "internalType": "uint256",
          "name": "",
          "type": "uint256"
        }
      ],
      "stateMutability": "view",
      "type": "function"
    },
    {
      "inputs": [
        {
          "internalType": "uint256",
          "name": "amount",
          "type": "uint256"
        },
        {
          "internalType": "bytes32",
          "name": "ticker",
          "type": "bytes32"
        }
      ],
      "name": "deposit",
      "outputs": [],
      "stateMutability": "nonpayable",
      "type": "function"
    },
    {
      "inputs": [],
      "name": "owner",
      "outputs": [
        {
          "internalType": "address",
          "name": "",
          "type": "address"
        }
      ],
      "stateMutability": "view",
      "type": "function"
    },
    {
      "inputs": [],
      "name": "renounceOwnership",
      "outputs": [],
      "stateMutability": "nonpayable",
      "type": "function"
    },
    {
      "inputs": [
        {
          "internalType": "uint256",
          "name": "",
          "type": "uint256"
        }
      ],
      "name": "tokenList",
      "outputs": [
        {
          "internalType": "bytes32",
          "name": "",
          "type": "bytes32"
        }
      ],
      "stateMutability": "view",
      "type": "function"
    },
    {
      "inputs": [
        {
          "internalType": "bytes32",
          "name": "",
          "type": "bytes32"
        }
      ],
      "name": "tokenMapping",
      "outputs": [
        {
          "internalType": "bytes32",
          "name": "ticker",
          "type": "bytes32"
        },
        {
          "internalType": "address",
          "name": "tokenAddress",
          "type": "address"
        }
      ],
      "stateMutability": "view",
      "type": "function"
    },
    {
      "inputs": [
        {
          "internalType": "address",
          "name": "newOwner",
          "type": "address"
        }
      ],
      "name": "transferOwnership",
      "outputs": [],
      "stateMutability": "nonpayable",
      "type": "function"
    },
    {
      "inputs": [
        {
          "internalType": "uint256",
          "name": "amount",
          "type": "uint256"
        },
        {
          "internalType": "bytes32",
          "name": "ticker",
          "type": "bytes32"
        }
      ],
      "name": "withdraw",
      "outputs": [],
      "stateMutability": "nonpayable",
      "type": "function"
    },
    {
      "inputs": [
        {
          "internalType": "bytes32",
          "name": "ticker",
          "type": "bytes32"
        },
        {
          "internalType": "enum Dex.Side",
          "name": "side",
          "type": "uint8"
        }
      ],
      "name": "getOrderBook",
      "outputs": [
        {
          "components": [
            {
              "internalType": "uint256",
              "name": "id",
              "type": "uint256"
            },
            {
              "internalType": "enum Dex.Side",
              "name": "side",
              "type": "uint8"
            },
            {
              "internalType": "address",
              "name": "trader",
              "type": "address"
            },
            {
              "internalType": "bytes32",
              "name": "ticker",
              "type": "bytes32"
            },
            {
              "internalType": "uint256",
              "name": "Amount",
              "type": "uint256"
            },
            {
              "internalType": "uint256",
              "name": "Price",
              "type": "uint256"
            }
          ],
          "internalType": "struct Dex.Order[]",
          "name": "",
          "type": "tuple[]"
        }
      ],
      "stateMutability": "view",
      "type": "function"
    }
  ],
  "bytecode": "0x608060405234801561001057600080fd5b5061002d61002261003260201b60201c565b61003a60201b60201c565b6100fe565b600033905090565b60008060009054906101000a900473ffffffffffffffffffffffffffffffffffffffff169050816000806101000a81548173ffffffffffffffffffffffffffffffffffffffff021916908373ffffffffffffffffffffffffffffffffffffffff1602179055508173ffffffffffffffffffffffffffffffffffffffff168173ffffffffffffffffffffffffffffffffffffffff167f8be0079c531659141344cd1fd0a4f28419497f9722a3daafe3b4186f6b6457e060405160405180910390a35050565b61154c8061010d6000396000f3fe608060405234801561001057600080fd5b506004361061009e5760003560e01c80639ead7222116100665780639ead722214610148578063a8d2021a14610178578063ba58ea6814610194578063c9630cb0146101c4578063f2fde38b146101e05761009e565b80631f14df69146100a3578063667cb4ba146100d3578063715018a6146101045780638da5cb5b1461010e5780639776aacf1461012c575b600080fd5b6100bd60048036038101906100b89190610d12565b6101fc565b6040516100ca9190610d6b565b60405180910390f35b6100ed60048036038101906100e89190610d86565b610221565b6040516100fb929190610dd1565b60405180910390f35b61010c610265565b005b6101166102ed565b6040516101239190610dfa565b60405180910390f35b61014660048036038101906101419190610e15565b610316565b005b610162600480360381019061015d9190610e81565b610451565b60405161016f9190610eae565b60405180910390f35b610192600480360381019061018d9190610ec9565b610475565b005b6101ae60048036038101906101a99190610f2e565b610720565b6040516101bb919061113c565b60405180910390f35b6101de60048036038101906101d99190610ec9565b61086f565b005b6101fa60048036038101906101f5919061115e565b610a89565b005b6001602052816000526040600020602052806000526040600020600091509150505481565b60036020528060005260406000206000915090508060000154908060010160009054906101000a900473ffffffffffffffffffffffffffffffffffffffff16905082565b61026d610b81565b73ffffffffffffffffffffffffffffffffffffffff1661028b6102ed565b73ffffffffffffffffffffffffffffffffffffffff16146102e1576040517f08c379a00000000000000000000000000000000000000000000000000000000081526004016102d8906111e8565b60405180910390fd5b6102eb6000610b89565b565b60008060009054906101000a900473ffffffffffffffffffffffffffffffffffffffff16905090565b61031e610b81565b73ffffffffffffffffffffffffffffffffffffffff1661033c6102ed565b73ffffffffffffffffffffffffffffffffffffffff1614610392576040517f08c379a0000000000000000000000000000000000000000000000000000000008152600401610389906111e8565b60405180910390fd5b60405180604001604052808381526020018273ffffffffffffffffffffffffffffffffffffffff16815250600360008481526020019081526020016000206000820151816000015560208201518160010160006101000a81548173ffffffffffffffffffffffffffffffffffffffff021916908373ffffffffffffffffffffffffffffffffffffffff16021790555090505060028290806001815401808255809150506001900390600052602060002001600090919091909150555050565b6002818154811061046157600080fd5b906000526020600020016000915090505481565b80600073ffffffffffffffffffffffffffffffffffffffff166003600083815260200190815260200160002060010160009054906101000a900473ffffffffffffffffffffffffffffffffffffffff1673ffffffffffffffffffffffffffffffffffffffff16141561051c576040517f08c379a000000000000000000000000000000000000000000000000000000000815260040161051390611254565b60405180910390fd5b82600160003373ffffffffffffffffffffffffffffffffffffffff1673ffffffffffffffffffffffffffffffffffffffff16815260200190815260200160002060008481526020019081526020016000205410156105af576040517f08c379a00000000000000000000000000000000000000000000000000000000081526004016105a6906112e6565b60405180910390fd5b61061283600160003373ffffffffffffffffffffffffffffffffffffffff1673ffffffffffffffffffffffffffffffffffffffff168152602001908152602001600020600085815260200190815260200160002054610c4d90919063ffffffff16565b600160003373ffffffffffffffffffffffffffffffffffffffff1673ffffffffffffffffffffffffffffffffffffffff1681526020019081526020016000206000848152602001908152602001600020819055506003600083815260200190815260200160002060010160009054906101000a900473ffffffffffffffffffffffffffffffffffffffff1673ffffffffffffffffffffffffffffffffffffffff1663a9059cbb33856040518363ffffffff1660e01b81526004016106d7929190611306565b6020604051808303816000875af11580156106f6573d6000803e3d6000fd5b505050506040513d601f19601f8201168201806040525081019061071a9190611367565b50505050565b606060046000848152602001908152602001600020600083600181111561074a57610749610fa9565b5b8152602001908152602001600020805480602002602001604051908101604052809291908181526020016000905b8282101561086357838290600052602060002090600502016040518060c0016040529081600082015481526020016001820160009054906101000a900460ff1660018111156107ca576107c9610fa9565b5b60018111156107dc576107db610fa9565b5b81526020016001820160019054906101000a900473ffffffffffffffffffffffffffffffffffffffff1673ffffffffffffffffffffffffffffffffffffffff1673ffffffffffffffffffffffffffffffffffffffff168152602001600282015481526020016003820154815260200160048201548152505081526020019060010190610778565b50505050905092915050565b80600073ffffffffffffffffffffffffffffffffffffffff166003600083815260200190815260200160002060010160009054906101000a900473ffffffffffffffffffffffffffffffffffffffff1673ffffffffffffffffffffffffffffffffffffffff161415610916576040517f08c379a000000000000000000000000000000000000000000000000000000000815260040161090d90611254565b60405180910390fd5b6003600083815260200190815260200160002060010160009054906101000a900473ffffffffffffffffffffffffffffffffffffffff1673ffffffffffffffffffffffffffffffffffffffff166323b872dd3330866040518463ffffffff1660e01b815260040161098993929190611394565b6020604051808303816000875af11580156109a8573d6000803e3d6000fd5b505050506040513d601f19601f820116820180604052508101906109cc9190611367565b50610a3083600160003373ffffffffffffffffffffffffffffffffffffffff1673ffffffffffffffffffffffffffffffffffffffff168152602001908152602001600020600085815260200190815260200160002054610c6390919063ffffffff16565b600160003373ffffffffffffffffffffffffffffffffffffffff1673ffffffffffffffffffffffffffffffffffffffff168152602001908152602001600020600084815260200190815260200160002081905550505050565b610a91610b81565b73ffffffffffffffffffffffffffffffffffffffff16610aaf6102ed565b73ffffffffffffffffffffffffffffffffffffffff1614610b05576040517f08c379a0000000000000000000000000000000000000000000000000000000008152600401610afc906111e8565b60405180910390fd5b600073ffffffffffffffffffffffffffffffffffffffff168173ffffffffffffffffffffffffffffffffffffffff161415610b75576040517f08c379a0000000000000000000000000000000000000000000000000000000008152600401610b6c9061143d565b60405180910390fd5b610b7e81610b89565b50565b600033905090565b60008060009054906101000a900473ffffffffffffffffffffffffffffffffffffffff169050816000806101000a81548173ffffffffffffffffffffffffffffffffffffffff021916908373ffffffffffffffffffffffffffffffffffffffff1602179055508173ffffffffffffffffffffffffffffffffffffffff168173ffffffffffffffffffffffffffffffffffffffff167f8be0079c531659141344cd1fd0a4f28419497f9722a3daafe3b4186f6b6457e060405160405180910390a35050565b60008183610c5b919061148c565b905092915050565b60008183610c7191906114c0565b905092915050565b600080fd5b600073ffffffffffffffffffffffffffffffffffffffff82169050919050565b6000610ca982610c7e565b9050919050565b610cb981610c9e565b8114610cc457600080fd5b50565b600081359050610cd681610cb0565b92915050565b6000819050919050565b610cef81610cdc565b8114610cfa57600080fd5b50565b600081359050610d0c81610ce6565b92915050565b60008060408385031215610d2957610d28610c79565b5b6000610d3785828601610cc7565b9250506020610d4885828601610cfd565b9150509250929050565b6000819050919050565b610d6581610d52565b82525050565b6000602082019050610d806000830184610d5c565b92915050565b600060208284031215610d9c57610d9b610c79565b5b6000610daa84828501610cfd565b91505092915050565b610dbc81610cdc565b82525050565b610dcb81610c9e565b82525050565b6000604082019050610de66000830185610db3565b610df36020830184610dc2565b9392505050565b6000602082019050610e0f6000830184610dc2565b92915050565b60008060408385031215610e2c57610e2b610c79565b5b6000610e3a85828601610cfd565b9250506020610e4b85828601610cc7565b9150509250929050565b610e5e81610d52565b8114610e6957600080fd5b50565b600081359050610e7b81610e55565b92915050565b600060208284031215610e9757610e96610c79565b5b6000610ea584828501610e6c565b91505092915050565b6000602082019050610ec36000830184610db3565b92915050565b60008060408385031215610ee057610edf610c79565b5b6000610eee85828601610e6c565b9250506020610eff85828601610cfd565b9150509250929050565b60028110610f1657600080fd5b50565b600081359050610f2881610f09565b92915050565b60008060408385031215610f4557610f44610c79565b5b6000610f5385828601610cfd565b9250506020610f6485828601610f19565b9150509250929050565b600081519050919050565b600082825260208201905092915050565b6000819050602082019050919050565b610fa381610d52565b82525050565b7f4e487b7100000000000000000000000000000000000000000000000000000000600052602160045260246000fd5b60028110610fe957610fe8610fa9565b5b50565b6000819050610ffa82610fd8565b919050565b600061100a82610fec565b9050919050565b61101a81610fff565b82525050565b61102981610c9e565b82525050565b61103881610cdc565b82525050565b60c0820160008201516110546000850182610f9a565b5060208201516110676020850182611011565b50604082015161107a6040850182611020565b50606082015161108d606085018261102f565b5060808201516110a06080850182610f9a565b5060a08201516110b360a0850182610f9a565b50505050565b60006110c5838361103e565b60c08301905092915050565b6000602082019050919050565b60006110e982610f6e565b6110f38185610f79565b93506110fe83610f8a565b8060005b8381101561112f57815161111688826110b9565b9750611121836110d1565b925050600181019050611102565b5085935050505092915050565b6000602082019050818103600083015261115681846110de565b905092915050565b60006020828403121561117457611173610c79565b5b600061118284828501610cc7565b91505092915050565b600082825260208201905092915050565b7f4f776e61626c653a2063616c6c6572206973206e6f7420746865206f776e6572600082015250565b60006111d260208361118b565b91506111dd8261119c565b602082019050919050565b60006020820190508181036000830152611201816111c5565b9050919050565b7f546f6b656e20646f6573206e6f74206578697374000000000000000000000000600082015250565b600061123e60148361118b565b915061124982611208565b602082019050919050565b6000602082019050818103600083015261126d81611231565b9050919050565b7f4e6f742073756666696369656e742066756e647320666f72207769746864726160008201527f77616c0000000000000000000000000000000000000000000000000000000000602082015250565b60006112d060238361118b565b91506112db82611274565b604082019050919050565b600060208201905081810360008301526112ff816112c3565b9050919050565b600060408201905061131b6000830185610dc2565b6113286020830184610d5c565b9392505050565b60008115159050919050565b6113448161132f565b811461134f57600080fd5b50565b6000815190506113618161133b565b92915050565b60006020828403121561137d5761137c610c79565b5b600061138b84828501611352565b91505092915050565b60006060820190506113a96000830186610dc2565b6113b66020830185610dc2565b6113c36040830184610d5c565b949350505050565b7f4f776e61626c653a206e6577206f776e657220697320746865207a65726f206160008201527f6464726573730000000000000000000000000000000000000000000000000000602082015250565b600061142760268361118b565b9150611432826113cb565b604082019050919050565b600060208201905081810360008301526114568161141a565b9050919050565b7f4e487b7100000000000000000000000000000000000000000000000000000000600052601160045260246000fd5b600061149782610d52565b91506114a283610d52565b9250828210156114b5576114b461145d565b5b828203905092915050565b60006114cb82610d52565b91506114d683610d52565b9250827fffffffffffffffffffffffffffffffffffffffffffffffffffffffffffffffff0382111561150b5761150a61145d565b5b82820190509291505056fea26469706673582212204a3486155ea5e06727a73a9a5be45e69c70dce7232e46dc96619762cca71c2b364736f6c634300080b0033",
  "immutableReferences": {},
  "source": "\npragma solidity >=0.6.0 <=0.8.11;\npragma experimental ABIEncoderV2;\n\nimport \"./wallet.sol\";\ncontract Dex is myWallet {\n\n  enum Side {\n    BUY,\n    SELL\n  }\n\n  struct Order{\n    uint id;\n    Side side;\n    address trader;\n    bytes32 ticker;\n    uint Amount;\n    uint Price;\n  }\n\n  mapping(bytes32 => mapping(uint256 => Order[]))orderBook;\n\n\n  function getOrderBook(bytes32 ticker, Side side) public view returns(Order[] memory){\n    return orderBook[ticker][uint256(side)];\n  }\n\n\n}\n",
  "sourcePath": "/Users/DEX/contracts/dex.sol",
  "compiler": {
    "name": "solc",
    "version": "0.8.11+commit.d7f03943.Emscripten.clang"
  },
  "schemaVersion": "3.4.5",
  "updatedAt": "2022-03-23T22:31:14.974Z",
  "devdoc": {
    "kind": "dev",
    "methods": {
      "owner()": {
        "details": "Returns the address of the current owner."
      },
      "renounceOwnership()": {
        "details": "Leaves the contract without owner. It will not be possible to call `onlyOwner` functions anymore. Can only be called by the current owner. NOTE: Renouncing ownership will leave the contract without an owner, thereby removing any functionality that is only available to the owner."
      },
      "transferOwnership(address)": {
        "details": "Transfers ownership of the contract to a new account (`newOwner`). Can only be called by the current owner."
      }
    },
    "version": 1
  },
  "userdoc": {
    "kind": "user",
    "methods": {},
    "version": 1
  }
}