{
  "contractName": "myWallet",
  "abi": [
    {
      "anonymous": false,
      "inputs": [
        {
          "indexed": true,
          "internalType": "address",
          "name": "previousOwner",
          "type": "address"
        },
        {
          "indexed": true,
          "internalType": "address",
          "name": "newOwner",
          "type": "address"
        }
      ],
      "name": "OwnershipTransferred",
      "type": "event"
    },
    {
      "inputs": [
        {
          "internalType": "address",
          "name": "",
          "type": "address"
        },
        {
          "internalType": "bytes32",
          "name": "",
          "type": "bytes32"
        }
      ],
      "name": "balances",
      "outputs": [
        {
          "internalType": "uint256",
          "name": "",
          "type": "uint256"
        }
      ],
      "stateMutability": "view",
      "type": "function",
      "constant": true
    },
    {
      "inputs": [],
      "name": "owner",
      "outputs": [
        {
          "internalType": "address",
          "name": "",
          "type": "address"
        }
      ],
      "stateMutability": "view",
      "type": "function",
      "constant": true
    },
    {
      "inputs": [],
      "name": "renounceOwnership",
      "outputs": [],
      "stateMutability": "nonpayable",
      "type": "function"
    },
    {
      "inputs": [
        {
          "internalType": "uint256",
          "name": "",
          "type": "uint256"
        }
      ],
      "name": "tokenList",
      "outputs": [
        {
          "internalType": "bytes32",
          "name": "",
          "type": "bytes32"
        }
      ],
      "stateMutability": "view",
      "type": "function",
      "constant": true
    },
    {
      "inputs": [
        {
          "internalType": "bytes32",
          "name": "",
          "type": "bytes32"
        }
      ],
      "name": "tokenMapping",
      "outputs": [
        {
          "internalType": "bytes32",
          "name": "ticker",
          "type": "bytes32"
        },
        {
          "internalType": "address",
          "name": "tokenAddress",
          "type": "address"
        }
      ],
      "stateMutability": "view",
      "type": "function",
      "constant": true
    },
    {
      "inputs": [
        {
          "internalType": "address",
          "name": "newOwner",
          "type": "address"
        }
      ],
      "name": "transferOwnership",
      "outputs": [],
      "stateMutability": "nonpayable",
      "type": "function"
    },
    {
      "inputs": [
        {
          "internalType": "bytes32",
          "name": "ticker",
          "type": "bytes32"
        },
        {
          "internalType": "address",
          "name": "tokenAddress",
          "type": "address"
        }
      ],
      "name": "addToken",
      "outputs": [],
      "stateMutability": "nonpayable",
      "type": "function"
    },
    {
      "inputs": [
        {
          "internalType": "uint256",
          "name": "amount",
          "type": "uint256"
        },
        {
          "internalType": "bytes32",
          "name": "ticker",
          "type": "bytes32"
        }
      ],
      "name": "deposit",
      "outputs": [],
      "stateMutability": "nonpayable",
      "type": "function"
    },
    {
      "inputs": [
        {
          "internalType": "uint256",
          "name": "amount",
          "type": "uint256"
        },
        {
          "internalType": "bytes32",
          "name": "ticker",
          "type": "bytes32"
        }
      ],
      "name": "withdraw",
      "outputs": [],
      "stateMutability": "nonpayable",
      "type": "function"
    }
  ],
  "bytecode": "0x608060405234801561001057600080fd5b5061002d61002261003260201b60201c565b61003a60201b60201c565b6100fe565b600033905090565b60008060009054906101000a900473ffffffffffffffffffffffffffffffffffffffff169050816000806101000a81548173ffffffffffffffffffffffffffffffffffffffff021916908373ffffffffffffffffffffffffffffffffffffffff1602179055508173ffffffffffffffffffffffffffffffffffffffff168173ffffffffffffffffffffffffffffffffffffffff167f8be0079c531659141344cd1fd0a4f28419497f9722a3daafe3b4186f6b6457e060405160405180910390a35050565b61116d8061010d6000396000f3fe608060405234801561001057600080fd5b50600436106100935760003560e01c80639776aacf116100665780639776aacf146101215780639ead72221461013d578063a8d2021a1461016d578063c9630cb014610189578063f2fde38b146101a557610093565b80631f14df6914610098578063667cb4ba146100c8578063715018a6146100f95780638da5cb5b14610103575b600080fd5b6100b260048036038101906100ad9190610b88565b6101c1565b6040516100bf9190610be1565b60405180910390f35b6100e260048036038101906100dd9190610bfc565b6101e6565b6040516100f0929190610c47565b60405180910390f35b61010161022a565b005b61010b6102b2565b6040516101189190610c70565b60405180910390f35b61013b60048036038101906101369190610c8b565b6102db565b005b61015760048036038101906101529190610cf7565b610416565b6040516101649190610d24565b60405180910390f35b61018760048036038101906101829190610d3f565b61043a565b005b6101a3600480360381019061019e9190610d3f565b6106e5565b005b6101bf60048036038101906101ba9190610d7f565b6108ff565b005b6001602052816000526040600020602052806000526040600020600091509150505481565b60036020528060005260406000206000915090508060000154908060010160009054906101000a900473ffffffffffffffffffffffffffffffffffffffff16905082565b6102326109f7565b73ffffffffffffffffffffffffffffffffffffffff166102506102b2565b73ffffffffffffffffffffffffffffffffffffffff16146102a6576040517f08c379a000000000000000000000000000000000000000000000000000000000815260040161029d90610e09565b60405180910390fd5b6102b060006109ff565b565b60008060009054906101000a900473ffffffffffffffffffffffffffffffffffffffff16905090565b6102e36109f7565b73ffffffffffffffffffffffffffffffffffffffff166103016102b2565b73ffffffffffffffffffffffffffffffffffffffff1614610357576040517f08c379a000000000000000000000000000000000000000000000000000000000815260040161034e90610e09565b60405180910390fd5b60405180604001604052808381526020018273ffffffffffffffffffffffffffffffffffffffff16815250600360008481526020019081526020016000206000820151816000015560208201518160010160006101000a81548173ffffffffffffffffffffffffffffffffffffffff021916908373ffffffffffffffffffffffffffffffffffffffff16021790555090505060028290806001815401808255809150506001900390600052602060002001600090919091909150555050565b6002818154811061042657600080fd5b906000526020600020016000915090505481565b80600073ffffffffffffffffffffffffffffffffffffffff166003600083815260200190815260200160002060010160009054906101000a900473ffffffffffffffffffffffffffffffffffffffff1673ffffffffffffffffffffffffffffffffffffffff1614156104e1576040517f08c379a00000000000000000000000000000000000000000000000000000000081526004016104d890610e75565b60405180910390fd5b82600160003373ffffffffffffffffffffffffffffffffffffffff1673ffffffffffffffffffffffffffffffffffffffff1681526020019081526020016000206000848152602001908152602001600020541015610574576040517f08c379a000000000000000000000000000000000000000000000000000000000815260040161056b90610f07565b60405180910390fd5b6105d783600160003373ffffffffffffffffffffffffffffffffffffffff1673ffffffffffffffffffffffffffffffffffffffff168152602001908152602001600020600085815260200190815260200160002054610ac390919063ffffffff16565b600160003373ffffffffffffffffffffffffffffffffffffffff1673ffffffffffffffffffffffffffffffffffffffff1681526020019081526020016000206000848152602001908152602001600020819055506003600083815260200190815260200160002060010160009054906101000a900473ffffffffffffffffffffffffffffffffffffffff1673ffffffffffffffffffffffffffffffffffffffff1663a9059cbb33856040518363ffffffff1660e01b815260040161069c929190610f27565b6020604051808303816000875af11580156106bb573d6000803e3d6000fd5b505050506040513d601f19601f820116820180604052508101906106df9190610f88565b50505050565b80600073ffffffffffffffffffffffffffffffffffffffff166003600083815260200190815260200160002060010160009054906101000a900473ffffffffffffffffffffffffffffffffffffffff1673ffffffffffffffffffffffffffffffffffffffff16141561078c576040517f08c379a000000000000000000000000000000000000000000000000000000000815260040161078390610e75565b60405180910390fd5b6003600083815260200190815260200160002060010160009054906101000a900473ffffffffffffffffffffffffffffffffffffffff1673ffffffffffffffffffffffffffffffffffffffff166323b872dd3330866040518463ffffffff1660e01b81526004016107ff93929190610fb5565b6020604051808303816000875af115801561081e573d6000803e3d6000fd5b505050506040513d601f19601f820116820180604052508101906108429190610f88565b506108a683600160003373ffffffffffffffffffffffffffffffffffffffff1673ffffffffffffffffffffffffffffffffffffffff168152602001908152602001600020600085815260200190815260200160002054610ad990919063ffffffff16565b600160003373ffffffffffffffffffffffffffffffffffffffff1673ffffffffffffffffffffffffffffffffffffffff168152602001908152602001600020600084815260200190815260200160002081905550505050565b6109076109f7565b73ffffffffffffffffffffffffffffffffffffffff166109256102b2565b73ffffffffffffffffffffffffffffffffffffffff161461097b576040517f08c379a000000000000000000000000000000000000000000000000000000000815260040161097290610e09565b60405180910390fd5b600073ffffffffffffffffffffffffffffffffffffffff168173ffffffffffffffffffffffffffffffffffffffff1614156109eb576040517f08c379a00000000000000000000000000000000000000000000000000000000081526004016109e29061105e565b60405180910390fd5b6109f4816109ff565b50565b600033905090565b60008060009054906101000a900473ffffffffffffffffffffffffffffffffffffffff169050816000806101000a81548173ffffffffffffffffffffffffffffffffffffffff021916908373ffffffffffffffffffffffffffffffffffffffff1602179055508173ffffffffffffffffffffffffffffffffffffffff168173ffffffffffffffffffffffffffffffffffffffff167f8be0079c531659141344cd1fd0a4f28419497f9722a3daafe3b4186f6b6457e060405160405180910390a35050565b60008183610ad191906110ad565b905092915050565b60008183610ae791906110e1565b905092915050565b600080fd5b600073ffffffffffffffffffffffffffffffffffffffff82169050919050565b6000610b1f82610af4565b9050919050565b610b2f81610b14565b8114610b3a57600080fd5b50565b600081359050610b4c81610b26565b92915050565b6000819050919050565b610b6581610b52565b8114610b7057600080fd5b50565b600081359050610b8281610b5c565b92915050565b60008060408385031215610b9f57610b9e610aef565b5b6000610bad85828601610b3d565b9250506020610bbe85828601610b73565b9150509250929050565b6000819050919050565b610bdb81610bc8565b82525050565b6000602082019050610bf66000830184610bd2565b92915050565b600060208284031215610c1257610c11610aef565b5b6000610c2084828501610b73565b91505092915050565b610c3281610b52565b82525050565b610c4181610b14565b82525050565b6000604082019050610c5c6000830185610c29565b610c696020830184610c38565b9392505050565b6000602082019050610c856000830184610c38565b92915050565b60008060408385031215610ca257610ca1610aef565b5b6000610cb085828601610b73565b9250506020610cc185828601610b3d565b9150509250929050565b610cd481610bc8565b8114610cdf57600080fd5b50565b600081359050610cf181610ccb565b92915050565b600060208284031215610d0d57610d0c610aef565b5b6000610d1b84828501610ce2565b91505092915050565b6000602082019050610d396000830184610c29565b92915050565b60008060408385031215610d5657610d55610aef565b5b6000610d6485828601610ce2565b9250506020610d7585828601610b73565b9150509250929050565b600060208284031215610d9557610d94610aef565b5b6000610da384828501610b3d565b91505092915050565b600082825260208201905092915050565b7f4f776e61626c653a2063616c6c6572206973206e6f7420746865206f776e6572600082015250565b6000610df3602083610dac565b9150610dfe82610dbd565b602082019050919050565b60006020820190508181036000830152610e2281610de6565b9050919050565b7f546f6b656e20646f6573206e6f74206578697374000000000000000000000000600082015250565b6000610e5f601483610dac565b9150610e6a82610e29565b602082019050919050565b60006020820190508181036000830152610e8e81610e52565b9050919050565b7f4e6f742073756666696369656e742066756e647320666f72207769746864726160008201527f77616c0000000000000000000000000000000000000000000000000000000000602082015250565b6000610ef1602383610dac565b9150610efc82610e95565b604082019050919050565b60006020820190508181036000830152610f2081610ee4565b9050919050565b6000604082019050610f3c6000830185610c38565b610f496020830184610bd2565b9392505050565b60008115159050919050565b610f6581610f50565b8114610f7057600080fd5b50565b600081519050610f8281610f5c565b92915050565b600060208284031215610f9e57610f9d610aef565b5b6000610fac84828501610f73565b91505092915050565b6000606082019050610fca6000830186610c38565b610fd76020830185610c38565b610fe46040830184610bd2565b949350505050565b7f4f776e61626c653a206e6577206f776e657220697320746865207a65726f206160008201527f6464726573730000000000000000000000000000000000000000000000000000602082015250565b6000611048602683610dac565b915061105382610fec565b604082019050919050565b600060208201905081810360008301526110778161103b565b9050919050565b7f4e487b7100000000000000000000000000000000000000000000000000000000600052601160045260246000fd5b60006110b882610bc8565b91506110c383610bc8565b9250828210156110d6576110d561107e565b5b828203905092915050565b60006110ec82610bc8565b91506110f783610bc8565b9250827fffffffffffffffffffffffffffffffffffffffffffffffffffffffffffffffff0382111561112c5761112b61107e565b5b82820190509291505056fea26469706673582212205084378df391269661ee85e37cf4fc2b5979d31d6a1ebc282d3d11b72c97093864736f6c634300080b0033",
  "immutableReferences": {},
  "source": "pragma solidity >=0.6.0 <=0.8.11;\n\n//importing the interface to interact with the tokens smart contract\nimport \"../node_modules/@openzeppelin/contracts/token/ERC20/IERC20.sol\";\n// import safeMath library to protect integer storage.\nimport \"../node_modules/@openzeppelin/contracts/utils/math/SafeMath.sol\";\n\nimport \"../node_modules/@openzeppelin/contracts/access/Ownable.sol\";\n\ncontract myWallet is Ownable{\n\n  using SafeMath for uint256;\n  /*\n  this balance mapping is going to keep track of the coins a specific address\n  holds, the bytes32 will be the ticker id of the coin (i.e. BNB)\n\n  convert to bytes32 and do compare operations.\n  */\n  mapping(address => mapping(bytes32 => uint256)) public balances;\n\n\n  //we need a way to store information about the tokens this\n  //contracts supports\n  struct Token{\n    bytes32 ticker; //ticker for the coin\n    address tokenAddress; //address for the coin, whenenver you trade\n    //something, you need to be able to make transfer calls. in the actual\n    //ERC20 token. Call token contract and do those transfers. We need to have\n    //the token address saved.\n  }\n\n  //save all the tickers, which is like the ID for a token\n  //need to be unique\n  bytes32[] public tokenList; //ENUMERABLE\n  // Map from bytes to struct\n  mapping(bytes32 => Token) public tokenMapping;  //UPDATEABLE\n  //Save it in a combined structure of array and mapping.\n\n  //Check to see whether the token exists. but why check the 0 address?\n  //is this ticker points to an uninitialized struct, then all properties of the\n  // struct will be zero. addy= 000000000\n  modifier tokenExists(bytes32 ticker){\n    require(tokenMapping[ticker].tokenAddress != address(0), \"Token does not exist\");\n    _;\n  }\n\n\nfunction addToken(bytes32 ticker, address tokenAddress) onlyOwner external{\n  //external bc we don't need to call it from here. Saves Gas.\n  tokenMapping[ticker] = Token(ticker, tokenAddress); //stores addy for ID.\n  tokenList.push(ticker); //upload ID\n\n}\n\n//deposit tokens from the user that is interacting with this contract. into our contract\n//from the token contract. Need a reentrency-guard for sure.\nfunction deposit(uint256 amount, bytes32 ticker) tokenExists(ticker) external{\n  //call the token contract to transfer here in our SC\n  //ORDER OF OPERATIONS MATTER.\n  //based on interface specifications, this is allowance, that needs to be granted\n  //before hand. Could make another require statement.\n  IERC20(tokenMapping[ticker].tokenAddress).transferFrom(msg.sender,address(this), amount);\n  //update internal balance\n  balances[msg.sender][ticker] = balances[msg.sender][ticker].add(amount);\n\n\n}\n\nfunction withdraw(uint256 amount, bytes32 ticker) tokenExists(ticker) external{\n  require(balances[msg.sender][ticker] >= amount, \"Not sufficient funds for withdrawal\"); //CHECK\n  // this is one of the crucial processes of deducting and sending money\n  //check, effects, interact\n  //use safeMath for integer storage protection.\n  balances[msg.sender][ticker] = balances[msg.sender][ticker].sub(amount); //EFFECTS\n  //transfer from this smart contract, to it's rightful owner.\n  IERC20(tokenMapping[ticker].tokenAddress).transfer(msg.sender, amount); // INTERACT\n}\n\n\n}\n",
  "sourcePath": "/Users/DEX/contracts/wallet.sol",
  "compiler": {
    "name": "solc",
    "version": "0.8.11+commit.d7f03943.Emscripten.clang"
  },
  "schemaVersion": "3.4.5",
  "updatedAt": "2022-03-18T21:58:59.582Z",
  "networkType": "ethereum",
  "devdoc": {
    "kind": "dev",
    "methods": {
      "owner()": {
        "details": "Returns the address of the current owner."
      },
      "renounceOwnership()": {
        "details": "Leaves the contract without owner. It will not be possible to call `onlyOwner` functions anymore. Can only be called by the current owner. NOTE: Renouncing ownership will leave the contract without an owner, thereby removing any functionality that is only available to the owner."
      },
      "transferOwnership(address)": {
        "details": "Transfers ownership of the contract to a new account (`newOwner`). Can only be called by the current owner."
      }
    },
    "version": 1
  },
  "userdoc": {
    "kind": "user",
    "methods": {},
    "version": 1
  }
}